:020000040800F2
:1000000000500020251800084D1700084F17000861
:10001000511700085317000855170008000000008A
:10002000000000000000000000000000571700085A
:1000300059170008000000005B1700085D17000852
:100040006D1800086D1800086D1800086D1800087C
:100050006D1800086D1800086D1800086D1800086C
:100060006D1800086D1800086D1800086D1800085C
:100070006D1800086D1800086D1800086D1800084C
:100080006D1800086D1800086D1800086D1800083C
:100090006D1800086D1800086D1800086D1800082C
:1000A0006D1800086D1800086D1800086D1800081C
:1000B0006D1800086D1800086D1800086D1800080C
:1000C0006D1800086D1800086D1800086D180008FC
:1000D0006D1800086D1800086D1800086D180008EC
:1000E0006D1800086D1800086D1800080000000069
:1000F0000000000000000000000000000000000000
:0C01000000000000000000005FF808F1A3
:1001100081F0004102E000BF83F0004330B54FEAB8
:1001200041044FEA430594EA050F08BF90EA020F25
:100130001FBF54EA000C55EA020C7FEA645C7FEAB8
:10014000655C00F0E2804FEA5454D4EB5555B8BFDB
:100150006D420CDD2C4480EA020281EA030382EA4C
:10016000000083EA010180EA020281EA0303362DDE
:1001700088BF30BD11F0004F4FEA01314FF4801CB1
:100180004CEA113102D0404261EB410113F0004FC3
:100190004FEA03334CEA133302D0524263EB43037A
:1001A00094EA050F00F0A780A4F10104D5F1200E18
:1001B0000DDB02FA0EFC22FA05F2801841F1000173
:1001C00003FA0EF2801843FA05F359410EE0A5F147
:1001D00020050EF1200E012A03FA0EFC28BF4CF078
:1001E000020C43FA05F3C01851EBE37101F000452E
:1001F00007D54FF0000EDCF1000C7EEB00006EEB3B
:100200000101B1F5801F1BD3B1F5001F0CD34908C4
:100210005FEA30004FEA3C0C04F101044FEA44521B
:1002200012F5800F80F09A80BCF1004F08BF5FEAA2
:10023000500C50F1000041EB045141EA050130BD82
:100240005FEA4C0C404141EB0101013C28BFB1F594
:10025000801FE9D291F0000F04BF01460020B1FADF
:1002600081F308BF2033A3F10B03B3F120020CDAB2
:100270000C3208DD02F1140CC2F10C0201FA0CF090
:1002800021FA02F10CE002F11402D8BFC2F1200CF5
:1002900001FA02F120FA0CFCDCBF41EA0C019040AB
:1002A000E41AA2BF01EB0451294330BD6FEA0404F4
:1002B0001F3C1CDA0C340EDC04F11404C4F12002DF
:1002C00020FA04F001FA02F340EA030021FA04F3F1
:1002D00045EA030130BDC4F10C04C4F1200220FA48
:1002E00002F001FA04F340EA0300294630BD21FA86
:1002F00004F0294630BD94F0000F83F4801306BF4C
:1003000081F480110134013D4EE77FEA645C18BF3F
:100310007FEA655C29D094EA050F08BF90EA020FD6
:1003200005D054EA000C04BF1946104630BD91EACE
:10033000030F1EBF0021002030BD5FEA545C05D1D1
:100340004000494128BF41F0004130BD14F5800410
:100350003CBF01F5801130BD01F0004545F0FE4184
:1003600041F470014FF0000030BD7FEA645C1ABFB9
:10037000194610467FEA655C1CBF0B46024650EAF0
:10038000013406BF52EA033591EA030F41F400211C
:1003900030BD00BF90F0000F04BF0021704730B5A2
:1003A0004FF4806404F132044FF000054FF0000177
:1003B00050E700BF90F0000F04BF0021704730B538
:1003C0004FF4806404F1320410F0004548BF40420D
:1003D0004FF000013EE700BF42004FEAE2014FEA62
:1003E00031014FEA02701FBF12F07F4393F07F4F3D
:1003F00081F06051704732F07F4208BF704793F040
:100400007F4F04BF41F40021704730B54FF4607452
:1004100001F0004521F000411CE700BF50EA010255
:1004200008BF704730B54FF000050AE050EA0102FE
:1004300008BF704730B511F0004502D5404261EB6E
:1004400041014FF4806404F132045FEA915C3FF4AF
:10045000D8AE4FF003025FEADC0C18BF03325FEA4C
:10046000DC0C18BF033202EBDC02C2F1200300FAFD
:1004700003FC20FA02F001FA03FE40EA0E0021FA22
:1004800002F11444BDE600BF4FEA410212F500122A
:1004900015D211D56FF47873B3EB625212D94FEACB
:1004A000C12343F0004343EA505311F0004F23FAB5
:1004B00002F018BF404270474FF00000704750EA0A
:1004C000013005D111F0004008BF6FF000407047C7
:1004D0004FF00000704700BF844641EA000313F06C
:1004E000030349D1403A23D30B6803604B68436050
:1004F0008B688360CB68C3600B6903614B694361A0
:100500008B698361CB69C3610B6A03624B6A436287
:100510008B6A8362CB6AC3620B6B03634B6B43636F
:100520008B6B8363CB6BC36340304031403ADBD28B
:1005300030320BD30B6803604B6843608B68836079
:10054000CB68C36010301031103AF3D20C3205D3AF
:1005500051F8043B40F8043B043AF9D2043208D085
:10056000D2071CBF11F8013B00F8013B01D30B88F7
:1005700003806046704700BF082A13D38B07B1D0B1
:1005800010F00303AED0C3F10403D21ADB071CBF83
:1005900011F8013B00F8013BA4D331F8023B20F8ED
:1005A000023B9FE7043AD9D3013A11F8013B00F826
:1005B000013BF9D20B7803704B7843708B788370D2
:1005C0006046704770B54FF0FF0C4CF4E06C1CEACD
:1005D00011541DBF1CEA135594EA0C0F95EA0C0F39
:1005E00000F0DEF82C4481EA030621EA4C5123EAAC
:1005F0004C5350EA013518BF52EA033541F48011DB
:1006000043F4801338D0A0FB02CE4FF00005E1FB8D
:1006100002E506F00042E0FB03E54FF00006E1FBD7
:1006200003569CF0000F18BF4EF0010EA4F1FF041A
:10063000B6F5007F64F5407404D25FEA4E0E6D415A
:1006400046EB060642EAC62141EA55514FEAC5206B
:1006500040EA5E504FEACE2EB4F1FD0C88BFBCF5E7
:10066000E06F1ED8BEF1004F08BF5FEA500E50F198
:10067000000041EB045170BD06F0004646EA01015E
:1006800040EA020081EA0301B4EB5C04C2BFD4EB90
:100690000C0541EA045170BD41F480114FF0000E89
:1006A000013C00F3AB8014F1360FDEBF002001F0F7
:1006B000004170BDC4F10004203C35DA0C341BDC71
:1006C00004F11404C4F1200500FA05F320FA04F043
:1006D00001FA05F240EA020001F0004221F0004177
:1006E00010EBD37021FA04F642EB06015EEA430EEA
:1006F00008BF20EAD37070BDC4F10C04C4F120051A
:1007000000FA04F320FA05F001FA04F240EA0200CC
:1007100001F0004110EBD37041F100015EEA430E9D
:1007200008BF20EAD37070BDC4F1200500FA05F2BD
:100730004EEA020E20FA04F301FA05F243EA02033C
:1007400021FA04F001F0004121FA04F220EA02004B
:1007500000EBD3705EEA430E08BF20EAD37070BD91
:1007600094F0000F0FD101F00046400041EB010171
:1007700011F4801F08BF013CF7D041EA060195F053
:10078000000F18BF704703F00046520043EB03030D
:1007900013F4801F08BF013DF7D043EA06037047FA
:1007A00094EA0C0F0CEA135518BF95EA0C0F0CD005
:1007B00050EA410618BF52EA4306D1D181EA03014B
:1007C00001F000414FF0000070BD50EA410606BF45
:1007D0001046194652EA430619D094EA0C0F02D18A
:1007E00050EA013613D195EA0C0F05D152EA0336CF
:1007F0001CBF104619460AD181EA030101F00041ED
:1008000041F0FE4141F470014FF0000070BD41F035
:10081000FE4141F4780170BD70B54FF0FF0C4CF40F
:10082000E06C1CEA11541DBF1CEA135594EA0C0F2E
:1008300095EA0C0F00F0A7F8A4EB050481EA030E7B
:1008400052EA03354FEA013100F088804FEA033362
:100850004FF0805545EA131343EA12634FEA022230
:1008600045EA111545EA10654FEA00260EF00041F1
:100870009D4208BF964244F1FD0404F5407402D243
:100880005B084FEA3202B61A65EB03055B084FEAD4
:1008900032024FF480104FF4002CB6EB020E75EBD1
:1008A000030E22BFB61A754640EA0C005B084FEAF9
:1008B0003202B6EB020E75EB030E22BFB61A754676
:1008C00040EA5C005B084FEA3202B6EB020E75EBC1
:1008D000030E22BFB61A754640EA9C005B084FEA39
:1008E0003202B6EB020E75EB030E22BFB61A754646
:1008F00040EADC0055EA060E18D04FEA051545EA35
:1009000016754FEA06164FEAC30343EA52734FEADD
:10091000C2025FEA1C1CC0D111F4801F0BD141EA56
:1009200000014FF000004FF0004CB6E711F4801FBB
:1009300004BF01430020B4F1FD0C88BFBCF5E06F9B
:100940003FF6AFAEB5EB030C04BFB6EB020C5FEAAB
:10095000500C50F1000041EB045170BD0EF0004E00
:100960004EEA113114EB5C04C2BFD4EB0C0541EA32
:10097000045170BD41F480114FF0000E013C90E62F
:1009800045EA060E8DE60CEA135594EA0C0F08BFF3
:1009900095EA0C0F3FF43BAF94EA0C0F0AD150EAF2
:1009A00001347FF434AF95EA0C0F7FF425AF104685
:1009B00019462CE795EA0C0F06D152EA03353FF4AD
:1009C000FDAE1046194622E750EA410618BF52EA2A
:1009D00043067FF4C5AE50EA41047FF40DAF52EAFE
:1009E00043057FF4EBAE12E74FF0FF3C06E000BF9B
:1009F0004FF0010C02E000BF4FF0010C4DF804CDA8
:100A00004FEA410C7FEA6C5C4FEA430C18BF7FEA67
:100A10006C5C1BD001B050EA410C0CBF52EA430C95
:100A200091EA030F02BF90EA020F0020704710F115
:100A3000000F91EA030F58BF994208BF90422CBFA4
:100A4000D8176FEAE37040F0010070474FEA410C9D
:100A50007FEA6C5C02D150EA013C07D14FEA430CBB
:100A60007FEA6C5CD6D152EA033CD3D05DF8040B2C
:100A7000704700BF8446104662468C46194663465E
:100A800000E000BF01B5FFF7B7FF002848BF10F135
:100A9000000F01BD4DF808EDFFF7F4FF0CBF01207A
:100AA00000205DF808FB00BF4DF808EDFFF7EAFFF6
:100AB00034BF012000205DF808FB00BF4DF808EDB1
:100AC000FFF7E0FF94BF012000205DF808FB00BFA6
:100AD0004DF808EDFFF7CEFF94BF012000205DF830
:100AE00008FB00BF4DF808EDFFF7C4FF34BF01203D
:100AF00000205DF808FB00BF4FEA410C7FEA6C5C08
:100B000002D150EA013C0AD14FEA430C7FEA6C5C07
:100B100002D152EA033C02D14FF0000070474FF07F
:100B2000010070470348044B834202D0034B03B1DA
:100B300018477047E4060020E4060020000000008B
:100B40000548064B1B1AD90F01EBA301491002D02F
:100B5000034B03B118477047E4060020E406002069
:100B60000000000010B5064C237843B9FFF7DAFF08
:100B7000044B13B10448AFF300800123237010BD70
:100B8000E406002000000000E889000808B5054BD5
:100B90001BB105490548AFF30080BDE80840FFF7E9
:100BA000CFBF00BF00000000E8060020E889000871
:100BB000074B40221A8007225A8001221A715A716B
:100BC0003822DA803B221A8100229A729A81704779
:100BD0000007002008B5104B9B7A012B00D008BD00
:100BE00000F0C9F901280DD000F0C0F90128F6D1B4
:100BF000094BB3F90630702BF1DC9BB20233064A85
:100C0000D380ECE7044BB3F90630002BECDD9BB24C
:100C1000023B014AD380E7E70007002008B5364BC6
:100C20009B7A002B47D0022B52D033490B8891F985
:100C3000040082B213441BB20B804A8891F905E08C
:100C40001FFA8EFC624412B24A80022B4BDC0B4628
:100C500002211980C0B240421871022A06DC264ADD
:100C6000022353805FFA8EF35B425371224AB2F93A
:100C700002300233B2F90820934213DB1E4BB3F962
:100C80000010B3F9063099420CDB0F33994209DCAE
:100C900092B2033A184B5A805A7952425A719A8941
:100CA00001329A81144BB3F902303D2B02DD124B15
:100CB00002229A7208BD00F059F9012803D10E4BA7
:100CC00001229A72F6E700F056F90128F2D1F6E710
:100CD00000F04CF9012803D000F04DF90128E9D1CA
:100CE000FFF766FFE6E77C2BB7DD034B7D2119801C
:100CF000C0B240421871B0E70007002030B58BB099
:100D000000F0F6F9344B9B7A3BB1022B20D0012B3B
:100D10003DD000F0F7F90BB030BD304A05AB07CA43
:100D200003C31A802E4A02AB07CA03C31A702D4CA4
:100D300000250095234605AA14210A2000F06BFC2B
:100D40000095234602AA28210A2000F064FCE0E76F
:100D5000254A02AB07CA03C323F8022B120C1A70F0
:100D60001D4B9A89214905A801F08EFE1D4C0025D6
:100D70000095234602AA1421084600F04CFC009579
:100D8000234605AA2821142000F045FCC1E7124C97
:100D9000B4F90000B4F9021000230222C9B2C0B2B3
:100DA00000F091FBB4F90600B4F908100025009595
:100DB00003230F22C9B2C0B200F066FBA2890C491E
:100DC00005A801F061FE0095064B05AA052108461D
:100DD00000F021FC9DE700BF00070020108A0008FA
:100DE0001C8A0008DC8B0008288A0008008A00089A
:100DF0000C8A000830B589B0002404940594069448
:100E00000794184B9A6942F020029A619A6902F09D
:100E100020020192019A9A6942F008029A619A6945
:100E200002F008020292029A9A6942F004029A6160
:100E30009B6903F004030393039B4FF480530493D3
:100E4000094D04A9284600F0DBFD4FF4005304933C
:100E500005940123069304A9284600F0D1FD09B0AA
:100E600030BD00BF00100240000C014008B50B4827
:100E70000B4B03600B4B436000238360C3604FF454
:100E80008042026143618361C361036201F05EF8E5
:100E900000B908BD00F074F8FBE700BF10070020A0
:100EA00000540040801A060010B586B0002302935B
:100EB0000393049305930268114B9A4201D006B044
:100EC00010BD104CA36943F00803A361A36903F0AC
:100ED00008030093009BC023029312230393032370
:100EE000059302A9084800F08BFDE36943F4001361
:100EF000E361E36903F400130193019BDFE700BFA3
:100F00000054004000100240000C014008B50128C8
:100F100001D0A0B108BD4FF40051134800F07EFE8F
:100F200008B10020F6E7142000F0ECFC4FF400516B
:100F30000D4800F073FE0028F3D10120EAE74FF4DA
:100F40008051094800F06AFE08B10020E2E7142051
:100F500000F0D8FC4FF48051034800F05FFE0028F9
:100F6000F3D10120D6E700BF000C014008B50020F6
:100F7000FFF7CCFF08BD08B50120FFF7C7FF08BD8C
:100F800072B6FEE700B591B02822002106A801F054
:100F900013FE00230193029303930493059301220C
:100FA00006924FF4803307930A9202220D920E9319
:100FB0004FF4E0130F9306A801F078F980B90F23DE
:100FC000019302210291002303934FF48062049263
:100FD000059301A801F09CFB20B911B05DF804FB5A
:100FE000FFF7CEFFFFF7CCFF08B500F067FCFFF777
:100FF000C9FFFFF7FFFEFFF739FF642000F082FC16
:1010000000F026F8FFF7D4FDFFF7E4FDFFF706FE3A
:10101000FFF774FE0A2000F075FCF5E700B583B019
:1010200002460B464FF0FF3100917A21024801F051
:101030006BF803B05DF804FB1007002008B5034B04
:10104000587002211846FFF7E9FF08BDEC070020A1
:1010500008B5AE20FFF7F2FF0220FFF7EFFF1020E8
:10106000FFF7ECFF4020FFF7E9FFB020FFF7E6FFB6
:101070008120FFF7E3FFCF20FFF7E0FFA120FFF77C
:10108000DDFFA620FFF7DAFFA820FFF7D7FF3F20FC
:10109000FFF7D4FFAD20FFF7D1FF8B20FFF7CEFF86
:1010A0003320FFF7CBFFC820FFF7C8FFD320FFF79F
:1010B000C5FF0020FFF7C2FFD520FFF7BFFFC0200C
:1010C000FFF7BCFFD920FFF7B9FF1F20FFF7B6FFDE
:1010D000DA20FFF7B3FF1220FFF7B0FFDB20FFF7A6
:1010E000ADFF4020FFF7AAFFAF20FFF7A7FF08BD25
:1010F00008B54FF480620021014801F05DFD08BD94
:10110000F007002038B5104B40221A70002418E078
:10111000A4F15000C0B2FFF791FF0220FFF78EFF4D
:101120001020FFF78BFF094D8022094901EBC41104
:101130002846FFF7D1F98121681EFFF76FFF0134C0
:10114000E4B2072CE4D938BD680700206907002005
:10115000F007002010F0800F1FD13F291DD86AB979
:10116000CA080E4B03EBC2131A5C01F007014FF0E3
:10117000010C0CFA01F10A431A547047CB08074AD4
:1011800002EBC31212F800C001F0070101238B40EB
:10119000DB435BB20CEA030313547047F0070020F3
:1011A00030B59DF8104007282FD811F0800F2CD1B2
:1011B0000CB1D243D2B29DF80C400134FF2505FAA0
:1011C00004F464B252B244EA020CC3F1080E45FAC8
:1011D0000EF54CEA050C5FFA8CFC0C4D85F800C04E
:1011E0000B4B03EBC010435C0CEA030C00F801C08E
:1011F00022EA04036FF0FF0242FA0EF21340DBB260
:101200002B704CEA030C00F801C030BD65070020CC
:10121000F00700202DE9F04383B0064690461C46B7
:101220009DF82890CF0801F007052B44082B1EDD00
:10123000AA40CDF80490072300932B46D2B2014672
:101240003846FFF7ADFFC5F1080248FA02F22C4418
:10125000E4B2CDF80490093CE4B200940023D2B289
:101260003146781CFFF79CFF03B0BDE8F083AA402D
:101270002C44E4B2CDF80490013CE4B200942B4637
:10128000D2B201463846FFF78BFFEDE72DE9F0417A
:1012900082B0064615469846CF0801F00704A240E2
:1012A0000193072300932346D2B201463846FFF745
:1012B00077FF14B902B0BDE8F081C4F1080345FA24
:1012C00003F2CDF80480013CE4B200940023D2B2D2
:1012D0003146781CFFF764FFECE72DE9F04F85B04D
:1012E0008046894692461E469DF838309DF83CB0AF
:1012F000DF0803F0070202920025039312E006FBC9
:10130000045209EBC40105EB08005B461AF8022001
:10131000C9B2C0B2FFF7BAFF0134E4B2BC42EED3A7
:101320000135EDB2B54201D20024F7E7039B029AE2
:10133000BAB106FB07F700241D4610E03A1925F064
:101340000701494404EB0800CDF800B0029B1AF8ED
:101350000220C9B2C0B2FFF75DFF0134E4B2B4426B
:10136000ECD305B0BDE8F08F2DE9F04F85B0054610
:101370000C4699469DF83870904224D09046994288
:1013800034D0111A09B2181B002940DD0123019342
:10139000002840DD012302932DB224B20029B8BFFA
:1013A00049421FFA81FA09B20028B8BF40421FFA29
:1013B00080FB00B2814248DC0026CDF80CB0DDF89D
:1013C000088083464AE099420BD92E4A11701C4688
:1013D000894606E03A4621462846FFF7BBFE01341F
:1013E000E4B2A145F6D205B0BDE8F08F90420BD92A
:1013F000244B18701546804606E03A46214628469A
:10140000FFF7A8FE0135EDB2A845F6D2EBE74FF0A5
:10141000FF330193BCE74FF0FF330293BCE74D4429
:101420002DB24545DFD03A46E1B2E8B2FFF792FE71
:101430005E44B3B236B2BAEB460FF0DC029A144403
:1014400024B2039A9B1A1EB2E9E70026CDF80CA03D
:10145000DDF804908A46E4E7444424B24C45C2D007
:101460003A46E1B2E8B2FFF775FE5644B3B236B27F
:10147000BBEB460FF0DC019A15442DB2039A9B1A80
:101480001EB2E9E7640700202DE9F04383B005466A
:10149000884617461E469DF8289000240EE004EB6F
:1014A0000801C9B2EA19D2B2013ACDF800900B4650
:1014B000D2B22846FFF758FF0134E4B2B442EED36B
:1014C00003B0BDE8F0832DE9F04F85B081460F46AB
:1014D0001E460FFA82FA5200C2F1030300934FF046
:1014E0000008434652E05FFA84F85FFA8BF5E91989
:1014F0003246C9B24046FFF72DFE791B3246C9B2CB
:101500004046FFF727FE013424B209EB0A039C4250
:10151000E9DD5B461FFA8BFBA9EB0B0424B2CDF887
:1015200008A0CDF80CB09B4611E05FFA84F85FFA92
:101530008AF5E9193246C9B24046FFF70BFE791B1E
:101540003246C9B24046FFF705FE013424B20BEB28
:1015500009039C42E9DD019DDDF80880DDF80CB04F
:101560000BF1010B1FFA8BF20FFA8BF30099002994
:1015700016DBA3EB0808009A02EB880808F10A08BA
:101580000FFA88F20092013D0FFA85FA53450EDCFE
:101590001FFA8AF5A9EB050424B201959B46B4E72E
:1015A000920092B20A44063212B20092EEE705B0FF
:1015B000BDE8F08F70B582B05D68203A1C7804F108
:1015C000070C4FEAEC0C5B7803FB0CFC9DF81860F1
:1015D000019600940CFB0252FFF77FFE02B070BD33
:1015E000037890F90020002A0DDA03F0E002C02A07
:1015F0000BD003F0F002E02A09D003F0F803F02B3F
:1016000007D0002070470120704702207047032058
:101610007047042070472DE9F04F87B00390049184
:1016200093461E469DF84030059333780733DB1010
:1016300096F8019003FB09F95FFA89F909F10409A9
:101640005FFA89F94FF0000A15E03378059A0192A4
:10165000009373782A1D0499039C2046FFF73DFEF2
:1016600073782344DBB20393C2441FFA8AFA01233E
:1016700000E00023E3B10BEB0A071BF80A30002B54
:101680003ED03846FFF7ACFF8046002838D0002413
:10169000337AA342EDD9756809FB045542462946C1
:1016A000384601F05BFA0028CFD00134E4B2EFE70E
:1016B000B8F1010F11D0059B0093F3682022049923
:1016C000039C2046FFF776FFF3685B782344DBB288
:1016D0000393D0441FFA88FACDE7059B0093F36883
:1016E0001BF80A200499039C2046FFF763FFF36868
:1016F0005B782344DBB20393C2441FFA8AFABAE749
:1017000007B0BDE8F08F000082B00E4B9A6942F03E
:1017100001029A619A6902F001020092009ADA6964
:1017200042F08052DA61DB6903F080530193019B40
:10173000054A536823F0E06343F00073536002B03E
:10174000704700BF0010024000000140FEE7FEE7C6
:10175000FEE7FEE7FEE770477047704708B500F008
:10176000BFF808BD0120704708B501F0C9FA16237B
:1017700003604FF0FF3008BD08B54FF0FF31FFF7B1
:10178000F3FFFEE770B50C461646002506E0AFF302
:101790000080214601F8010B01350C46B542F6DB0D
:1017A000304670BD70B50C461646002504E014F8AE
:1017B000010BAFF300800135B542F8DB304670BD58
:1017C0004FF0FF3070474FF400534B6000207047DC
:1017D000012070470020704710B503460C4A0D49A0
:1017E0000D48006840B10C4800680344521A934207
:1017F00006D8094A136010BD0748084C0460F2E798
:1018000001F07EFA0C2303604FF0FF30F3E700BFD6
:101810000050002000040000F00B0020100F0020FA
:1018200070470000FFF7FCFF0B480C490C4A0023EF
:1018300002E0D458C4500433C4188C42F9D3094A86
:10184000094C002301E013600432A242FBD301F0F3
:101850005DFAFFF7C9FB704700000020E406002096
:10186000F8940008E40600200C0F0020FEE70000BA
:1018700010B504460E4B1A784FF47A73B3FBF2F3AB
:101880000C4A1068B0FBF3F000F0A6F868B90F2C12
:1018900001D901200AE0002221464FF0FF3000F07C
:1018A0008BF8054B1C60002000E0012010BD00BF3C
:1018B00004000020000000200800002008B5074AAE
:1018C000136843F010031360032000F063F80F2047
:1018D000FFF7CEFFFFF718FF002008BD00200240F1
:1018E000034A1168034B1B780B441360704700BF19
:1018F000F40B002004000020014B1868704700BF63
:10190000F40B002038B50446FFF7F6FF0546B4F1A6
:10191000FF3F02D0044B1B781C44FFF7EDFF401B38
:10192000A042FAD338BD00BF04000020002808DB25
:101930000901C9B200F1604000F5614080F8001370
:10194000704700F00F000901C9B2014B19547047EC
:1019500014ED00E000B500F00700C0F1070CBCF189
:10196000040F28BF4FF0040C031D062B0FD9C31E14
:101970004FF0FF3E0EFA0CF021EA000199400EFAFA
:1019800003FE22EA0E0241EA02005DF804FB002396
:10199000EEE70000074AD36823F4E0631B041B0C46
:1019A000000200F4E060034343F0BF6343F40033FC
:1019B000D360704700ED00E010B50446054BD868D1
:1019C000C0F30220FFF7C6FF01462046FFF7AEFF37
:1019D00010BD00BF00ED00E00138B0F1807F0BD2F8
:1019E0004FF0E0235861054AF02182F823100020CF
:1019F000986107221A6170470120704700ED00E0EE
:101A000070B582B00024A446A1E07E4DAB4214D054
:101A10000CD8A5F58015AB420FD005F57025AB426B
:101A20000BD0A5F58015AB4210D106E0764DAB4248
:101A300003D005F58035AB4208D18B68002B50D020
:101A4000012B49D04261082400E0CC68BEF1FF0FB1
:101A500049D806464FEA8C0233680F25954023EAA1
:101A6000050304FA02F2134333604B6813F0805FFE
:101A70006BD0664B9A6942F001029A619B6903F050
:101A800001030193019B4FEA9C02951C604B53F8A4
:101A900025600CF00305AD000F23AB4026EA0306DA
:101AA0005C4B984226D003F58063984200F08C800E
:101AB00003F58063984200F0898003F580639842C3
:101AC00016D0042317E0CC680434BFE7CC68083490
:101AD000BCE7CC680C34B9E702610824B6E70024FF
:101AE000B4E70424B2E7061DACF108029200B3E7A4
:101AF000032300E00023AB4033430232444D45F85A
:101B000022304B6813F4801F62D0434A936843EA43
:101B10000E0393604B6813F4001F5FD03E4AD368F6
:101B200043EA0E03D3604B6813F4003F5CD03A4A9B
:101B3000536843EA0E0353604B6813F4803F59D057
:101B4000354A136843EA0E0313600CF1010C0B686D
:101B500033FA0CF254D0012202FA0CF203EA020E1C
:101B600032EA0303F1D14B68122B3FF64EAF122B32
:101B70003FF66CAF01A555F823F000BF3B1A0008F3
:101B80004B1A0008CD1A0008DF1A00084D1A000889
:101B90004D1A00084D1A00084D1A00084D1A000889
:101BA0004D1A00084D1A00084D1A00084D1A000879
:101BB0004D1A00084D1A00084D1A00084D1A000869
:101BC000C71A0008D31A0008012394E7022392E7FA
:101BD000114A936823EA0E0393609BE70E4AD36889
:101BE00023EA0E03D3609EE70B4A536823EA0E03F1
:101BF0005360A1E7084A136823EA0E031360A4E7C1
:101C000002B070BD00002210000031100010024030
:101C100000000140000801400004014083681942AF
:101C200001D0012070470020704703685A6912F400
:101C3000806F01D1002070476FF480625A610023E9
:101C40000363202280F83D2080F83E30026C42F091
:101C50000402026480F83C30012070472DE9F04115
:101C600006460C46174698463BE0FFF745FE069BA6
:101C7000C01A404502D8B8F1000F32D1012D18D05A
:101C800033689B6924EA03039BB2B3FA83F35B09CD
:101C90009F4226D100233363202286F83D2086F818
:101CA0003E30326C42F02002326486F83C30012033
:101CB00027E033685B6924EA03039BB2B3FA83F33A
:101CC0005B09E5E733685B6924EA030C1FFA8CFCC7
:101CD000BCFA8CFC4FEA5C1C674511D1B8F1FF3FA0
:101CE000C3D1C4F30745012DECD033689B6924EAC6
:101CF000030C1FFA8CFCBCFA8CFC4FEA5C1CEBE773
:101D00000020BDE8F0812DE9F84305460E469046D7
:101D1000994653E01A6842F400721A602B686FF417
:101D200080625A6100232B63202285F83D2085F8CC
:101D30003E302A6C42F004022A6485F83C300120CF
:101D40004AE0FFF7D9FDA0EB0900404502D8B8F101
:101D5000000F33D1012F17D02B689B6926EA0303AC
:101D60009BB2003B18BF012343B300232B63202207
:101D700085F83D2085F83E302A6C42F020022A6426
:101D800085F83C30012027E02B685B6926EA0303D5
:101D90009BB2003B18BF0123E6E72B689C6926EA4B
:101DA0000404A4B2003C18BF0124A4B12B685A69F2
:101DB00012F4806FAED1B8F1FF3FC2D1C6F307472E
:101DC000012FEAD12B685C6926EA0404A4B2003C26
:101DD00018BF0124E9E70020BDE8F883F0B583B01F
:101DE00004460D4616461F46C36A082B0DD0012B2C
:101DF0000BD013F5803F08D0036B122B0AD1026879
:101E0000136843F48073136004E02268136843F49A
:101E1000807313600097334600224FF00111204673
:101E2000FFF71CFF80B92369B3F5804F16D12368F3
:101E300005F0FE051D613B46324613492046FFF77B
:101E400062FFF8B903B0F0BD23681B6813F4807F0C
:101E500002D04FF4007323640320F3E7EB112268F0
:101E600003F0060343F0F00313613B463246074993
:101E70002046FFF748FF18B92368EDB21D61DAE785
:101E80000120DFE70120DDE702000100080001007A
:101E900070B504460D46164623685B6913F0800F43
:101EA00021D12046FFF7C1FEF8B9B5F1FF3FF3D0CD
:101EB000FFF722FD801BA84201D8002DECD123683A
:101EC0005B6913F0800FE7D100232363202284F89D
:101ED0003D2084F83E30226C42F02002226484F8D7
:101EE0003C30012000E0002070BD0120FCE770B50F
:101EF00004460D46164623685B6913F0040F21D192
:101F00002046FFF792FEF8B9B5F1FF3FF3D0FFF797
:101F1000F3FC801BA84201D8002DECD123685B693B
:101F200013F0040FE7D100232363202284F83D201F
:101F300084F83E30226C42F02002226484F83C3067
:101F4000012000E0002070BD0120FCE7002800F027
:101F5000CC8070B5044690F83D30002B77D0242318
:101F600084F83D302268136823F00103136022686F
:101F7000136843F4004313602268136823F400439A
:101F8000136000F081FC62685A4B9A4264D85A4B45
:101F900098428CBF00230123002B40F0A8805749B2
:101FA000A1FB00318B0C25686A6822F03F0242EAEF
:101FB00091426A6021680A6A22F03F0266684D4DCC
:101FC000AE424FD8013313430B622168CA6922F431
:101FD0004F4222F0FF026568464B9D424CD8431E9B
:101FE0006D00B3FBF5F3013340F6FC70034278D08B
:101FF000C3F30B031A43CA6121680B6823F0C003C3
:10200000E269206A024313430B6021688B6823F462
:10201000034323F0FF032269E068024313438B600C
:102020002168CB6823F0FF036269A0690243134370
:10203000CB602268136843F0010313600020206422
:10204000202384F83D30206384F83E0070BD80F882
:102050003C30FEF729FF82E7294B98428CBF0023D2
:10206000012399E74FF4967505FB03F3254DA5FB76
:1020700003539B090133A6E7A668BEB9431E05EBCF
:10208000450CB3FBFCF30133C3F30B03B3FA83F347
:102090005B0943BBC6B9431E05EB4505B3FBF5F32E
:1020A0000133C3F30B0343F40043A3E7431E05EBE3
:1020B000850C0CEB8C0CB3FBFCF30133C3F30B036B
:1020C000B3FA83F35B09E4E7431E05EB850505EBF3
:1020D0008505B3FBF5F30133C3F30B0343F440432E
:1020E00088E7042386E7012384E701207047012065
:1020F000ACE700BFA08601007F841E0083DE1B4387
:10210000FF083D00D34D62102DE9F04385B0044631
:102110000F46914698460C9EFFF7EEFB054694F855
:102120003D00C0B2202804D00227384605B0BDE8E3
:10213000F0830095192301224F492046FFF78EFDB9
:10214000002840F0928094F83C30012B00F08F8002
:10215000012384F83C3023681A6812F0010F03D180
:102160001A6842F001021A602268136823F40063BF
:102170001360212384F83D30102384F83E3000237F
:102180002364C4F82490A4F82A80638D23853B4BF4
:10219000E3622B46324639462046FFF71FFE0746CC
:1021A000002866D10023039323685A6903929B6930
:1021B0000393039B11E0236C042B01D00127B4E7A8
:1021C0002268136843F400731360F7E72A46314628
:1021D0002046FFF78CFE00282ED1238D002B36D011
:1021E0002A4631462046FFF753FE0028E3D1626AB3
:1021F000236812781A61606A431C6362618D89B238
:10220000013989B26185238D013B9BB22385226808
:10221000516911F0040FD9D0002BD7D04378136146
:10222000636A01336362638D9BB2013B9BB263853A
:10223000238D013B2385C9E7236C042B01D00127A3
:1022400073E72268136843F400731360F7E72268AA
:10225000136843F400731360202384F83D30002397
:1022600084F83E3084F83C305FE702275DE70227C0
:102270005BE7012759E700BF020010000000FFFFE5
:1022800082B0084B1B68084AA2FB03235B0A00FBD1
:1022900003F3019300BF019B5A1E0192002BF9D159
:1022A00002B0704700000020D34D6210002800F0FB
:1022B000F18170B582B00446036813F0010F2CD091
:1022C000994B5B6803F00C03042B1DD0964B5B68A5
:1022D00003F00C03082B12D06368B3F5803F41D0A4
:1022E000002B55D103F1804303F504331A6822F41F
:1022F00080321A601A6822F480221A6037E08A4B12
:102300005B6813F4803FE7D0874B1B6813F4003FF2
:1023100003D06368002B00F0BF81236813F0020F25
:1023200075D0814B5B6813F00C0F5FD07E4B5B6800
:1023300003F00C03082B54D02369002B00F08A8093
:102340007A4B01221A60FFF7D7FA0546764B1B68D5
:1023500013F0020F75D1FFF7CFFA401B0228F5D911
:1023600003209EE1704A136843F48033136063686E
:1023700043B3FFF7C1FA05466B4B1B6813F4003FEC
:10238000CBD1FFF7B9FA401B6428F5D9032088E1C7
:10239000B3F5A02F09D0644B1A6822F480321A607A
:1023A0001A6822F480221A60E1E703F18043A3F562
:1023B0003C331A6842F480221A601A6842F4803270
:1023C0001A60D4E7FFF798FA0546574B1B6813F4D9
:1023D000003FA2D0FFF790FA401B6428F5D90320F4
:1023E0005FE1514B5B6813F4803FA5D14E4B1B68F6
:1023F00013F0020F03D02369012B40F04F814A4AAA
:10240000136823F0F803616943EAC103136023688A
:1024100013F0080F33D0A369002B5CD0434B01228B
:10242000C3F88024FFF768FA05463F4B5B6A13F058
:10243000020F21D1FFF760FA401B0228F5D90320D3
:102440002FE1394A136823F0F803616943EAC103B5
:102450001360DCE7354B00221A60FFF74DFA0546A2
:10246000314B1B6813F0020FD1D0FFF745FA401B28
:102470000228F5D9032014E10120FFF701FF2368AA
:1024800013F0040F00F09680274BDB6913F0805F98
:1024900034D1254BDA6942F08052DA61DB6903F00E
:1024A00080530193019B0125214B1B6813F4807F0E
:1024B00026D0E368012B3DD0002B53D103F180439C
:1024C00003F504331A6A22F001021A621A6A22F032
:1024D00004021A6233E0154B0022C3F88024FFF790
:1024E0000BFA0546104B5B6A13F0020FC7D0FFF7DB
:1024F00003FA401B0228F5D90320D2E00025D3E7D8
:102500000B4A136843F480731360FFF7F5F906462E
:10251000074B1B6813F4807FCBD1FFF7EDF9801BCD
:102520006428F5D90320BCE00010024000004242BC
:10253000007000405F4A136A43F001031362E368CE
:1025400033B3FFF7D9F906465A4B1B6A13F0020F53
:102550002FD1FFF7D1F9801B41F288339842F3D98C
:1025600003209EE0052B09D0524B1A6A22F001028B
:102570001A621A6A22F004021A62E0E74D4B1A6AE4
:1025800042F004021A621A6A42F001021A62D6E7A5
:10259000FFF7B2F90646474B1B6A13F0020F08D04B
:1025A000FFF7AAF9801B41F288339842F3D9032040
:1025B00077E0E5B9E369002B72D03E4A526802F039
:1025C0000C02082A56D0022B17D03B4B00221A6669
:1025D000FFF792F90446374B1B6813F0007F47D092
:1025E000FFF78AF9001B0228F5D9032059E0314A88
:1025F000D36923F08053D361DCE72F4B00221A66A6
:10260000FFF77AF905462B4B1B6813F0007F06D0C5
:10261000FFF772F9401B0228F5D9032041E0236A35
:10262000B3F5803F1AD023494B6823F47413226A10
:10263000606A024313434B601F4B01221A66FFF787
:102640005BF904461B4B1B6813F0007F0ED1FFF7AC
:1026500053F9001B0228F5D9032022E0154A5368DC
:1026600023F40033A1680B435360DCE7002018E03B
:10267000002016E0012B16D00E4B5B6803F480316E
:10268000226A914211D103F47013626A93420ED10F
:10269000002006E001207047012002E0012000E058
:1026A000002002B070BD0120FBE70120F9E7012006
:1026B000F7E700BF00100240000042420F4B5B688A
:1026C00003F00C02082A01D00D487047C3F383427F
:1026D0000C49885C13F4803F0BD0084B5B68C3F354
:1026E0004043094AD35C064A02FB00F0B0FBF3F01A
:1026F0007047064B03FB00F0704700BF001002401C
:1027000000127A00909200088C92000800093D00A7
:10271000002800F0A08070B50D460446524B1B689F
:1027200003F007038B420BD24F4A136823F00703D1
:102730000B431360136803F007038B4240F08D8056
:10274000236813F0020F17D013F0040F04D0474A88
:10275000536843F4E0635360236813F0080F04D018
:10276000424A536843F460535360404A536823F02D
:10277000F003A1680B435360236813F0010F31D0BD
:102780006368012B20D0022B25D0384A126812F042
:10279000020F64D035494A6822F0030213434B60AC
:1027A000FFF7AAF80646314B5B6803F00C0362683A
:1027B000B3EB820F16D0FFF79FF8801B41F28833EE
:1027C0009842F0D9032045E0284A126812F4003FED
:1027D000E0D101203EE0254A126812F0007FD9D1F5
:1027E000012037E0204B1B6803F00703AB420AD9F6
:1027F0001D4A136823F007032B431360136803F08B
:102800000703AB422DD1236813F0040F06D0174AFB
:10281000536823F4E063E1680B435360236813F0CB
:10282000080F07D0114A536823F46053216943EA23
:10283000C1035360FFF742FF0C4B5B68C3F3031304
:102840000B4AD35CD8400B4B18600B4B1868FFF752
:102850000FF8002070BD012070470120FAE7012029
:10286000F8E70120F6E700BF002002400010024018
:102870007C9200080000002008000020014B18682E
:10288000704700BF0000002008B5FFF7F7FF044BBA
:102890005B68C3F30223034AD35CD84008BD00BF82
:1028A0000010024074920008024A0349034800F0F5
:1028B000C9B800BF0C0000204151000820000020D2
:1028C0000C4B416810B59942044601D002F038FC27
:1028D000A168094B994202D0204602F031FCE16820
:1028E000064B994204D02046BDE8104002F028BCB7
:1028F00010BD00BFF80B0020600C0020C80C0020A9
:102900002DE9F84300250423304C314A3149DFF8E2
:10291000C890DFF8C880324F324E116004F15C007D
:1029200029460822C4E90335C4E90055C4E9055520
:10293000A560656600F040F904F15800C4E9074954
:10294000C4E90987E66200F009FA274B2946082204
:1029500004F1C4006367C4E91A55C4E91E5525672C
:10296000C4F8CC50C4F8805000F026F904F1680394
:1029700004F1C000C4F88430C4E92298C4E9247684
:1029800000F0ECF9194B294604F596700822C4F8BA
:10299000DC30C4E93455C4E93855C4F8D850C4F81B
:1029A0003451C4F8E85000F007F904F1D003C4E949
:1029B0003D87C4F8F09004F59470C4F8FC60C4F846
:1029C000EC30BDE8F84300F0C9B900BFF80B0020B7
:1029D000300D0020A9280008CD2A0008F12A00089F
:1029E000312B0008552B00080900010012000200DD
:1029F00010B504460A4800F0B5F9636B23B9094BDA
:102A0000094A1B68626323B1BDE81040044800F026
:102A1000ABB9FFF775FFBDE81040014800F0A4B95D
:102A2000400D0020300D0020C1280008014800F0B2
:102A300099B900BF400D0020014800F095B900BFD2
:102A4000400D00202DE9F8434FF0000980460F4665
:102A50001646D6E90154013D10D4A389012B08D9AB
:102A6000B4F90E30013304D021464046B84749EA54
:102A70000009013D6B1C04F16804EED13668002E9C
:102A8000E7D14846BDE8F8830EB470B504466FF050
:102A9000004600259DB00B4A21AB0B49106853F846
:102AA000042B059102A9CDE90134049607961B95E4
:102AB000069400F083FD029B1D701DB0BDE87040C0
:102AC00003B07047180000200802FFFF10B50C4645
:102AD000B1F90E1000F0E8F8002803DB236D034481
:102AE000236510BDA38923F48053A38110BD00BFCB
:102AF0002DE9F0410C46B1F90C101F46CB050546F7
:102B000016460BD421F48051A1813B46324628461B
:102B1000B4F90E10BDE8F04100F0DCB8B4F90E10C5
:102B20000223002200F0AAF8B4F90C10EAE700BF73
:102B300010B50C46B1F90E1000F0A0F8B4F90C3045
:102B4000421C0EBF23F4805343F480532065A381BD
:102B500010BD00BFB1F90E1000F07EB8032A30B4EA
:102B600015D941EA0004A40784460B4604D0541E3C
:102B70000FE0043A032A08D91946604653F8044B7B
:102B80005CF8045BA542F4D0F1E760461946541E98
:102B90007AB1431E0139021901E09A4209D013F8B3
:102BA000010F11F801CF6045F7D0A0EB0C0030BC4D
:102BB0007047002030BC704770B5860747D0541E60
:102BC000002A3ED00346CAB201E0013C39D303F8E3
:102BD000012B9D07F9D1032C2CD9CDB205EB05258E
:102BE0000F2C1A4605EB054534D9A4F1100C2CF036
:102BF0000F0603F1100EB6444FEA1C1CC2E9005543
:102C0000C2E9025510327245F8D10CF1010214F0FC
:102C10000C0F03EB021204F00F0C13D0ACF1040301
:102C200023F003030433134442F8045B9342FBD1C3
:102C30000CF003042CB1C9B21C4403F8011BA342DD
:102C4000FBD170BD64461346002CF4D1F9E703466E
:102C50001446C0E7A446E1E7002238B5064D044615
:102C600008462A60FEF7ACFD431C00D038BD2B6837
:102C7000002BFBD0236038BD340D002038B50C4646
:102C8000114600228446074D20462A601A466446B3
:102C9000FEF7A0FD431C00D038BD2B68002BFBD0F5
:102CA000236038BD340D002038B50C461146002293
:102CB0008446074D20462A601A466446FEF762FDA8
:102CC000431C00D038BD2B68002BFBD0236038BDDF
:102CD000340D002038B50C46114600228446074DBD
:102CE00020462A601A466446FEF75CFD431C00D06D
:102CF00038BD2B68002BFBD0236038BD340D00207D
:102D0000014B1868704700BF1800002070B50F4BCA
:102D10000F4DAB42A3EB050607D00024B61055F8C3
:102D2000043B01349847A642F9D805F05DFE094DF1
:102D3000094B5E1BAB424FEAA60606D0002455F8AD
:102D4000043B01349847A642F9D870BDEC940008C2
:102D5000EC940008EC940008F4940008704700BF5D
:102D6000704700BF704700BF704700BF024B13B1F0
:102D7000024800F005B87047000000002154000828
:102D8000002301461A46184602F01CBC2DE9F84300
:102D900006460820894602F057FB0546DFF8988072
:102DA000304600F0FFFBD8F808305F6827F00307D3
:102DB000A7F11104A4EB09042C44B4FBF5F4013C85
:102DC00005FB04F4A54208DC0021304602F016FBA6
:102DD000D8F808303B44984205D0304600F0E8FB74
:102DE0000020BDE8F8833046614202F007FB013065
:102DF0000FD0124AD8F808303F1B47F001075F6038
:102E0000136830461B1B136000F0D2FB0120BDE8A5
:102E1000F8830021304602F0F1FAD8F80820831A2E
:102E20000F2BDADD43F001035360054B03491B68A8
:102E3000C01A0860D1E700BF70010020480D0020D3
:102E40006401002000297CD0F8B50C46064600F04D
:102E5000A9FB54F8043C764FA4F1080523F00101C6
:102E60006818D7F808C04268844522F0030200F0D1
:102E70008380DB07426000EB020C33D454F8084C2B
:102E8000DCF804302D1B2144AC6807F1080C6445C4
:102E900003F0010364D0D5F80CE0C4F80CE0CEF8E0
:102EA0000840002B00F0818041F001036B6001605D
:102EB000B1F5007F22D20122CB0849098A40796806
:102EC00001330A437A6057F8331007EBC302083A1C
:102ED000C5E9021247F83350CD603046BDE8F840EE
:102EE00000F066BBDCF80430DB072BD541F00103B2
:102EF000B1F5007F44F8043C0160DCD3B1F5206FEC
:102F00004FEA512353D28B0903F1390003F1380200
:102F1000C300F818FB580838984203D161E09B6859
:102F2000984204D05A6822F003028A42F7D8D8683F
:102F3000C5E9023085603046DD60BDE8F84000F04C
:102F400037BB7047114407F1080C836863453FD0D5
:102F5000C268DA60936041F001036B606950A7E7D3
:102F6000002B5FD10A44D0E90213CB60996042F094
:102F700001036B60AA50B0E70A44D90707D454F89C
:102F8000083CED1A1A44D5E90213CB60996042F06F
:102F900001036B60274BBD601B6893429DD8264B95
:102FA00030461968FFF7F2FE97E71144CDE7142B7E
:102FB00008D9542B1DD80B0B03F16F0003F16E02DF
:102FC000C300A6E703F15C0003F15B02C300A0E7C6
:102FD00041F00103C7E90455C5E902CC6B606950B3
:102FE0007BE70121921001FA02F279680A437A60C4
:102FF0009EE7B3F5AA7F06D8CB0B03F1780003F167
:103000007702C30085E740F25452934206D88B0CF6
:1030100003F17D0003F17C02C3007AE74FF47E7375
:103020007E2276E741F001036B60016055E700BF47
:103030007001002068010020780D00202DE9F04F7C
:1030400001F10B05162D064683B024D8102900F295
:10305000AD8000F0A7FA102518234FF0020CB84FEE
:103060003B445C68A3F10802944200F01D813046A5
:103070006368E268A16823F00303CA602344916097
:103080005A68083442F001025A6000F091FA204672
:1030900003B0BDE8F08F35F0070500F18780A94245
:1030A00000F2848000F07EFAB5F5FC7FC0F06F81FD
:1030B0006B0A7FD0042B00F21E81AB0903F1390C9F
:1030C00003F1380E4FEACC009D4F3844446808386D
:1030D000A04207D10DE0002AE16880F2DF8088423B
:1030E00007D00C46636823F003035A1B0F2AF2DD56
:1030F000F446DFF850823C69444500F0BC806368C8
:1031000023F00309A9EB05030F2B00F34581002BE6
:10311000C7E9048880F22F81B9F5007FD7F804E071
:1031200080F0C98001234FEAD9014FEA59191944A7
:1031300003FA09F357F831204EEA030E07EBC103F7
:10314000083BA260E360C7F804E047F83140D46070
:1031500001204FEAAC039840704532D810EA0E0FB8
:1031600007D12CF0030C400010EA0E0F0CF1040CF8
:10317000F9D007EBCC0AD646E146DEF80C300BE07E
:1031800059681C4621F003014A1B0F2ADB6800F333
:10319000BF80002A80F2E2809E45F1D109F1010949
:1031A00019F0030F0EF1080EE7D11FE10C23336075
:1031B00000246CE74FF400704FF0400C4FF03F0ECE
:1031C00082E7BC68636823F00309A94503D3A9EB30
:1031D00005030F2B52DC5C4B08201B6803F1100821
:1031E00004EB0903009302F02FF9584A8346136851
:1031F000A844013305D008F1FF388044434203EA74
:1032000008084146304602F0F9F8B0F1FF3F824627
:103210004E4A00F0DC8004EB0903834200F2D580C3
:103220004B4B0BF1FF31186840448446186040F066
:10323000FB801AEA010F40F0F780D7F808A0C844D5
:1032400048F00102CAF804205446424B19688142F2
:1032500038BF1860404B1968814238BF186022F0AF
:103260000308A845A8EB050301D30F2B06DC304665
:1032700000F09EF99CE7D7F804E069E7621943F093
:10328000010345F0010565603046BA6008345360BB
:1032900000F08EF9204603B0BDE8F08FA2683046FA
:1032A000D16023448A60EBE6DC68A3427FF4DFAEA2
:1032B0000CF1020C1DE7B9F5206F4FEA59227DD3BE
:1032C000142A00F2118102F15C03DB005B32F91871
:1032D000FB580839994203D1ECE09B68994204D02D
:1032E0005A6822F003024A45F7D8D968C4E9023186
:1032F0008C60DC602CE7142B6CD9542B00F2FD8021
:103300002B0B03F16F0C03F16E0E4FEACC00DBE6E2
:10331000D4F808C03046661945F001056560CCF860
:103320000C30C3F808C042F00103C7E90466C6E9DF
:1033300002887360625000F03BF90834A7E600BFD2
:103340007001002078010020780D00206401002029
:10335000480D0020740D0020700D002021444A68A3
:10336000304642F001024A6054F8082FD3609A6058
:1033700000F01EF98BE6A144D9F80430304643F042
:103380000103C9F8043000F013F908347FE64FEA6E
:10339000D50C05F1080362E6621943F0010145F01E
:1033A000010565603046C7E90422C2E90288516020
:1033B00044F8093000F0FCF8083468E64FEA991246
:1033C00002F13903DB00383281E7BC4224D0BC680B
:1033D000626844E703F15C0C03F15B0E4FEACC003A
:1033E00072E65AF80839534540F0D8801CF0030FB4
:1033F0000CF1FF3CF5D17B6823EA00037B604000C1
:1034000098423FF6DEAE18B9DBE6400009F1040948
:103410001842FAD0CC46ACE6614B0BF1FF3118688C
:1034200008EB000CC3F800C01068013070D004EB4A
:103430000902AAEB020262441A601AF00702CDE9FF
:10344000002340D0C2F108029244D04408EA0100AF
:103450005A44121A02EA010B5946304601F0CEFFD7
:10346000421C019B71D0A0EB0A0000EB0B0818680E
:1034700048F001025844BC42C7F808A01860CAF8D6
:1034800004203FF4E1AEB9F10F0F44D94FF0050C21
:103490006168A9F10C0222F0070201F00101114359
:1034A00061600F2A04EB0201C1E901CC55D8DAF8BA
:1034B0000420C9E60120921000FA02F24EEA020E40
:1034C000C7F804E012E70AEB08020A40ABEB02027D
:1034D00002EA010B5946304601F090FF431C019B64
:1034E000C1D1DDF800B0C2E7542A18D84FEA19322A
:1034F00002F16F03DB006E32E9E6B3F5AA7F18D85C
:10350000EB0B03F1780C03F1770E4FEACC00DBE50F
:10351000C2F800A091E70123CAF80430A7E6B2F58B
:10352000AA7F25D84FEAD93202F17803DB0077323F
:10353000CDE640F25452934225D8AB0C03F17D0CFA
:1035400003F17C0E4FEACC00BEE5009A4FF0000B71
:10355000083A9044A8EB0A0889E7304604F10801CC
:103560000093FFF76FFC009BD7F808A018689EE750
:1035700040F254539A420DD84FEA994202F17D032A
:10358000DB007C32A3E64FF47E704FF07F0C4FF0EF
:103590007E0E99E54FF47E737E2298E67B682EE7D7
:1035A000480D00200148FFF7DDBB00BF380D0020AB
:1035B0000148FFF7D9BB00BF380D00202DE9F04FBF
:1035C000DDB00C4691460D910F93834601F012FF3A
:1035D000036818461A9301F091FF08221890002101
:1035E0002CA8FFF7E9FAA389180603D52369002B55
:1035F00000F01587002300249E46CDE931330023D7
:1036000033AACDE91634DA4614464D46CDE91BEE11
:103610003092CDF864E0CDF880E0CDF874E0CDF8DC
:1036200028E0CDF848E02F466E4BD3F8E46001F077
:10363000DBFE0DF1B00C03463A46504628A9CDF802
:1036400000C0B047002800F09F80C0F29580289B02
:10365000252B01D00744E7E7B7EB0508064640F005
:10366000978000224FF0FF33934609937B787E1CAE
:103670008DF897200B9299460136A9F120035A2B19
:1036800000F2B280DFE813F0F302B000B000EF0206
:10369000B000B000B000FD02B000B0006A0035021A
:1036A000B0002702D202B000CE025B005B005B00DC
:1036B0005B005B005B005B005B005B00B000B00088
:1036C000B000B000B000B000B0002801B000AA0106
:1036D0003E02280128012801B000B000B000B0006F
:1036E0003A02B000B000A802B000B000B000D001B3
:1036F000B000BC02B000B0008A06B000B000B0005C
:10370000B000B000B000B000B0002801B000AA01C5
:1037100001022801280128012B0201027400B000D7
:103720006402B0005502AF066E027400B000D00112
:103730007200AC06B000B000B206B0007200002209
:10374000A9F1300316F8019B02EB820203EB42025F
:10375000A9F13003092BF5D90B928EE70F9B53F893
:10376000042B002A0B920F93C0F2B281337882E7C8
:1037700033784BF0200B7EE7082200212CA8FFF7BE
:103780001BFA012007444FE7B7EB0508064610D0A7
:10379000329BC4E9005843443293319B0133072BD9
:1037A000319315DC08340A9B43440A93002E7FF4BE
:1037B00058AF329B002B41F05E810D9B9B8903F03B
:1037C0004003002B41F080830A985DB0BDE8F08F84
:1037D00050460D9930AA01F087FC0028EDD133AC9A
:1037E000E1E700BF780500201096B9F1000FE0D0A6
:1037F000012300228DF80C91069343AD8DF897209C
:103800000C93CDE913220E92099211921BF0020340
:1038100002D00699023106911BF08408329E05D130
:103820000B9906980F1A002F00F39B806AB10122B2
:103830006260319A013601320DF19701072A329602
:103840003192216000F3D883083463B102236360AE
:10385000319B0236013326AA072B32963193226020
:1038600000F3BF830834B8F1800F00F0BF82099BDA
:103870000C9A9F1A002F00F3F9821BF4807F40F00E
:103880001E820C9B25601E446360319B329601337F
:10389000072B319300F33F8308341BF0040F05D04E
:1038A0000B9B069A9D1A002D00F3B383DDE90A32C3
:1038B00006998A42ACBF9B185B180A93002E40F011
:1038C0000883002331930E9B1BB150460E99FFF7DE
:1038D000B9FA33AC109DA6E60F9B1096073323F080
:1038E0000703F3E802670F9327F000431F931E9628
:1038F0004FF0FF32DDE91E01B24BCDE91667FDF74F
:10390000FBF8002840F0F484DDE91E014FF0FF329F
:10391000AC4BFDF7D3F8002840F0EA8400220023E6
:1039200030463946FDF7C0F8002840F0B2879DF8D0
:10393000972000210320A44DA44B2BF0800B0E9167
:103940000690B9F1470FD8BF1D46CDE91311099173
:103950000C901191002A3FF459AF069B0133069356
:1039600054E7102F319A41F30D82DFF864C22146EB
:1039700030460D9C2E46CDF854C06546219304E098
:10398000103F102F01F1080116DD10230132103015
:10399000072ACDE931200D604B60F1DD214650460C
:1039A00030AA01F0A1FB002840F09B82DDE9312024
:1039B000103F102F33A9E8DC35460C460646219B04
:1039C000013215993E44072ACDE93126216067600E
:1039D00000F381869DF89720083427E70F9BB9F103
:1039E000430F109603F1040603D01BF0100F00F0F4
:1039F0000185082200212EA8FFF7DEF80F9A43ADBB
:103A00002EAB29465046126803F0E4F90346013311
:103A10000C9001F054820C9B23EAE373069300227E
:103A20000F968DF89720ECE600230F9F109657F81D
:103A3000045B8DF89730002D00F00085B9F1530F2D
:103A400000F094861BF01003119340F08F86099BC1
:103A5000002BC1F21B801A462846119901F002FD85
:103A60000E90002801F081820E9B11995B1B0C9334
:103A700023EAE3734FF07309CDE913119DF8972002
:103A80000F97099106930E9164E71BF0200F109693
:103A90003ED00F9B073323F007031846596850F8B0
:103AA000083B0A460F900029C0F2CA8309990029F1
:103AB000C0F2888253EA02012BF0800740F0838233
:103AC000099A002A40F08482BB460C925CAD64E106
:103AD0000B9B5B420B9333784BF0040BCBE53378B5
:103AE000682B03BF73784BF4007B01364BF0400B1F
:103AF000C1E52B238DF897303378BCE533784BF054
:103B0000080BB8E54BF0100B1BF0200F1096C0D13E
:103B10000F9A1BF0100F52F8043B0F9240F0C28333
:103B20001BF0400F00F0BA8343F3C03211461BB2C2
:103B3000B9E71BF0200F109600F0C5830F9B0A9A7F
:103B40001B681A60D2175A600F9B04330F93C1E6AB
:103B500033786C2B03BF73784BF0200B01364BF09E
:103B6000100B88E547F630030F9AADF8983052F8FD
:103B7000043B02210F924FF078090022154810965D
:103B80004BF0020719900020099D8DF89700002D39
:103B9000C0F2EC8053EA020027F0800B40F0E58091
:103BA000002D40F0D285002940F0538317F0010327
:103BB0000C9300F0718330230DF26F158DF86F3187
:103BC000EBE000BFFFFFEF7F388A0008348A00086F
:103BD000B0920008448A000810964BF0100B1BF0BE
:103BE000200200F012830F9B073323F007031946CE
:103BF0005A6851F8083B0F9100212BF48067C2E707
:103C000010964BF0100717F0200200F00B830F9B6B
:103C10000121073323F0070318465A6850F8083B80
:103C20000F90B0E733784BF0800B24E5314611F864
:103C3000019BB9F12A0F01F02882A9F13003092B69
:103C400098BF002201F2A28011F8019B02EB8202D0
:103C500003EB4202A9F13003092BF5D942EAE273E2
:103C60000E46099309E533784BF0010B03E59DF807
:103C700097203378002A7FF4FEAC20228DF897201D
:103C8000F9E4504601F0B6FB436818461D9301F075
:103C900035FC20900746504601F0ACFB83681B932F
:103CA000002F3FF463AD1B9A3378002A3FF4E3AC56
:103CB0001278002A3FF4DFAC4BF4806BDBE4B9F1FF
:103CC000650F40F33781DDE9160100220023FCF780
:103CD000E1FE002800F0D88101236360319B934A04
:103CE00001330136072B32963193226000F332857F
:103CF0000834279B129A934280F2C982189B1A9A21
:103D00001E44C4E90023319B32960133072B3193C3
:103D100000F37A830834129B5D1E002D7FF7BDAD42
:103D2000102D319B40F3EB80DFF804921027DDF873
:103D30003480CDF8549004E00834103D102D40F349
:103D4000E08001331036072BC4E90097CDE9313606
:103D5000F2DD4146504630AA01F0C6F9002840F095
:103D6000C080DDE9313633ACE7E75F46012900F07A
:103D70002A8102295CAD1ED1199803F00F01415C24
:103D80001B0943EA0273120905F8011D53EA0201F7
:103D9000F3D1BB465CAB5B1B0C93099A0C990023D7
:103DA0008A42B8BF0A46CDE9133306920E939DF8B6
:103DB00097201193CEE503F00701DB0843EA427335
:103DC000D208303153EA0206284605F8011DF2D127
:103DD000FB07DED53029DCD03023023805F8013C62
:103DE0005CAB1B1ABB4605460C93D6E70B9B069AA9
:103DF0009F1A002F7FF73BAD102F319B41F35B8063
:103E00004B48224631464FF0100806460D9C15904F
:103E100004E0103F102F02F1080214DD01331031CD
:103E2000072BC2E90068CDE93131F2DD2146504669
:103E300030AA01F059F9002853D1DDE93131103FA2
:103E4000102F33AAEADC14460E460133159A3E447D
:103E5000072BCDE931362260676000F3C084099BEF
:103E60000C9A08349F1A002F7FF707AD304A102FA5
:103E7000319B159221DD32464FF010082E460D9DE4
:103E800004E0103F102F04F1080414DD0133284929
:103E90001032072BC4E90018CDE93132F1DD294693
:103EA000504630AA01F020F9D8B9DDE93132103F8F
:103EB000102F33ACEADC354616460133159A3E44E2
:103EC000072BCDE931362260676000F39281083418
:103ED000D3E450460D9930AA01F006F900283FF4CA
:103EE000F0ACD3460E9B002B3FF467AC58460E99BE
:103EF000FEF7A8FF0D9B9B8903F0400361E40C4A89
:103F00001592159A01332E44072B22606560CDE986
:103F100031367FF7C1AC50460D9930AA01F0E4F874
:103F20000028DED1329E33ACB7E400BF748A0008AB
:103F3000A0920008129B319F012B06F1010607F1A8
:103F4000010704F1080940F310810123072FCDE98F
:103F500031762560636000F38081189B01371A9ADF
:103F60001E44072FC9E90023CDE9317600F3828191
:103F700009F10809129B0022DDE916015C1E0023ED
:103F8000FCF788FD002840F00981013701352644FF
:103F9000072FCDE93176C9F80050C9F8044000F385
:103FA000F08009F108091C9B01371E44C9F8043050
:103FB000072F2AABCDE93176C9F80030ABDC09F127
:103FC00008046AE45F460A2B72F1000180F0258341
:103FD00030338DF86F310123BB460C930DF26F1512
:103FE000DBE650460D9930AA01F07EF800287FF4F8
:103FF00078AF329E33AC36E450460D9930AA159313
:1040000001F072F800287FF46CAF329E159B33AC40
:104010001BE4102D319B40F33187DFF8CC82102751
:10402000DDF83490CDF8548004E0103D102D04F1FB
:10403000080415DD01331036072BC4E90087CDE9EC
:104040003136F2DD4946504630AA01F04DF80028DD
:104050007FF447AFDDE93136103D102D33ACE9DC9C
:104060000133159A2E44072BC4E90025CDE93136DA
:104070007FF71CAC50460D9930AA01F035F80028A6
:104080007FF42FAF329E11E42799002940F3338348
:10409000DDE911839845A8BF9846B8F1000F0ADD05
:1040A000319B46440133072BC4E9005832963193C3
:1040B00000F33E860834119FB8F1000FA8BFA7EBAC
:1040C0000807002F00F3CB81DDF844901BF4806FCC
:1040D000A94440F0EA81279B129A9342C0F2718270
:1040E0001BF0010F40F06D82129AAF18A7EB090781
:1040F000D51AAF42A8BF2F46002F0BDD319B3E449F
:104100000133072BC4F8009067603296319300F3B7
:1041100085860834002FA8BFED1B002D7FF7BDABAF
:10412000102D319B7FF7EBAEDFF8C0911027DDF843
:104130003480CDF8549004E00834103D102D7FF702
:10414000E0AE01331036072BC4E90097CDE93136D4
:10415000F2DD4146504630AA00F0C6FF00287FF449
:10416000C0AEDDE9313633ACE7E71BF0010F7FF479
:10417000ECAE0123072FCDE93176256063607FF730
:1041800012AF50460D9930AA00F0AEFF00287FF420
:10419000A8AEDDE931760DF1CC0904E7129B012BC5
:1041A0007FF701AF112B40F37F87504BCDF824B040
:1041B00010259B46DDF83480159305E009F10809C8
:1041C000103C102C40F33C8301371036072FC9E90F
:1041D00000B5CDE93176F1DD4146504630AA00F018
:1041E00083FF00287FF47DAEDDE931760DF1CC0947
:1041F000E6E750460D9930AA00F076FF00287FF4DC
:1042000070AE329E33ACFFF738BB0F991BF0100035
:1042100051F8043B55D11BF040054ED002460F919A
:104220009BB2E9E40F9917F0100051F8043B41D11B
:1042300017F040053AD00F91024601219BB2A2E44B
:104240005B425F464FF02D004FF0010162EB4202EE
:104250009AE4099B5CAD0C939FE550460D9930AAFA
:1042600000F042FF00287FF43CAEDDE931760DF12D
:10427000CC0972E650460D9930AA00F035FF0028AF
:104280007FF42FAEDDE931760DF1CC0972E61BF03B
:10429000010F3FF402AB31E55CAD7EE51BF4007F1E
:1042A00040F04F83DA171146FFF7FDBB17F4007299
:1042B00040F052830F91012165E41BF4007240F03D
:1042C00046830F9198E41BF0100F40F094821BF08E
:1042D000400F40F0CA831BF4007F00F08C820F9BDC
:1042E0000A9A1B681A702FE4B0920008A092000886
:1042F000DDE9160102460B46FCF7FEFB002840F004
:104300001C86B9F1610F00F01F85B9F1410F00F073
:104310004A85099B013300F0EF8329F02003472BE6
:1043200000F0E1850E90DDE91612002A13464BF4E9
:104330008078C0F2E68400231593DDE91623CDE9E9
:104340002223A9F14103252B00F20E83DFE813F0AD
:1043500018040C030C030C03D803A5040C030C0372
:104360000C030C030C030C030C030C030C030C03D5
:104370000C030C030C030C030C030C030C030C03C5
:104380000C030C030C030C030C030C030C030C03B5
:1043900018040C030C030C03D803A504A64B1096B9
:1043A00019931BF0200200F01A810F9B073323F0B2
:1043B000070319465A6851F8083B0F911BF0010F8B
:1043C00009D053EA020106D030218DF899904BF0C4
:1043D000020B8DF8981002212BF48067FFF7D3BBF6
:1043E0005F4610960FE41096FFF7F9BB934B1096BB
:1043F0001993D6E70F9B43AD1B688DF80C31012351
:1044000006930C93FFF70BBB50460D9930AA00F0B2
:104410006BFE00287FF465AD329E33AC7BE4402117
:104420005846FEF70BFE0D9B18601861002800F03F
:104430003F8640230D9A5361FFF7DCB8099B29465C
:10444000062B28BF06232A4609950E95CDE91311A0
:104450007B4D06930F970C931191FFF77BBA102FAA
:10446000319B40F31D86774932464FF010090E46C6
:10447000DDF83480159104E00834103F102F40F32C
:10448000EE8101331032072BC4E90069CDE93132E6
:10449000F2DD4146504630AA00F026FE00287FF4A7
:1044A00020ADDDE9313233ACE7E7129B2246EB1851
:1044B0000993139B4C46002B3146DDF85080CDF814
:1044C00044B0DDF86C90209EDDF834B0149531DDF9
:1044D000B8F1000F40F3338108F1FF3831981D9B8C
:1044E000013031440728C2E900363291319000F39F
:1044F00089800832099B99F800001F1B8742A8BFDA
:104500000746002F0CDD3198394401300728C2E9F5
:1045100000473291319000F3558199F8000008323C
:10452000002FB4BF0546C51B002D14DC0444139BAB
:10453000002BCDDCB8F1000FCEDCCDF86C90A1469D
:10454000149D129B1446EB1899450E4628BF9946B8
:10455000DDF844B0BFE5102D31983A4B23DD0C94C3
:1045600010272C461D4604E0103C102C02F10802D6
:1045700016DD0130334B10310728C2E90037CDE991
:104580003101F1DD5946504630AA00F0ADFD00285A
:104590007FF4A7ACDDE93101103C102C33AAE8DC34
:1045A0002B4625460C9C013029440728CDE93101D2
:1045B0001360556000F3AD8399F80000083204449D
:1045C000B5E7189A1A991644C4E90012319A32963E
:1045D0000132072A319200F3C883083484E50F9929
:1045E0001BF0100051F8043B0AD11BF0400503D02A
:1045F00002460F919BB2E1E61BF4007240F09D81F0
:104600000F91DBE65946504630AA00F06DFD0028B8
:104610007FF467AC329933AA6CE707F480610C979A
:104620000E944FF0000E0F46DFF81CB01B9C0DF5EA
:10463000B87CCDF8189010E0588A0008448A000829
:104640006C8A0008A0920008CDCCCCCC0A2B72F169
:10465000000237D343463246AC46991841F1000177
:10466000ABFB010626F0030000EB96004FF0CC36C2
:10467000091A581A06FB00F662F10009A0FB0B802C
:104680000BFB09660644052008F00109A9FB000997
:1046900040184FEA5808303048EAC6780EF1010E4B
:1046A0000CF1FF350CF8010C7608002FCED02178E4
:1046B0008E45CBD1BEF1FF0FC8D00A2B72F100029C
:1046C00080F0DA801B94DDF818900C9F0E9CCDF8DA
:1046D00048E0FFF75EBB50460D9930AA159300F0F5
:1046E00003FD00287FF4FDAB9DF89720329E159BBB
:1046F00033ACFFF79BB801236360319B994A0133C8
:104700000136072B32963193226000F3FE80083485
:10471000002976D1129A0BF0010313433FF4BDA890
:10472000189B1A9A1E44C4E90023319B3296013328
:10473000072B319300F3D38104F1080272E0139B3D
:1047400009F1FF39013B1393C8E601295F467FF465
:1047500010AB3DE450460D9930AA00F0C5FC00288E
:104760007FF4BFAB329E33ACFFF7C3BA0DF1B8088C
:104770000822002140462995FEF71EFA099B002BCE
:10478000C0F28C8000260697CDF8309037469946C7
:104790000FE04346504643A902F01CFB421C06F1C1
:1047A0000406384400F0BD83484506DC00F0FE8373
:1047B0000746299B9A59002AEBD1DDF830900C97D7
:1047C000069F79E05946504630AA00F08DFC00283B
:1047D0007FF487AB99F80000329933AAA0E65046DF
:1047E0000D9930AA00F080FC00287FF47AAB329E4D
:1047F00033ACFFF73CB80F9B0A9A1B681A60FFF7AF
:10480000A3B9189B1A9A1E44C4E90023319B32961F
:104810000133072B319300F3628104F10802002970
:10482000C0F20B83129901330E44072BCDE93136C8
:10483000156051603FF76FAB02F10804FFF72DB828
:10484000DDF824B00137159B2644072FCDE93176DA
:10485000C9F80030C9F804407FF7A3AB91E41646CD
:104860000133159A3E44072BCDE93136226067604B
:1048700000F32981083427E4209B1D99ED1A1A467C
:10488000284600F07BFD637803B101344FF0000E41
:10489000E0E62D228DF89720FFF74BB80023504615
:1048A0001946CDF8008029AA02F0BAFA034601336E
:1048B0000C9000F0368329950C9B002B31D0632B94
:1048C00000F3F780002343AD0E93082200214046F9
:1048D000FEF772F90C9E294633465046CDF800800B
:1048E00029AA02F09DFA864240F0F28300230C9A36
:1048F000CDE9133322EAE271AB549DF897200F976C
:10490000069109931193FFF725B850460D9930AAE7
:1049100000F0EAFB00287FF4E4AA2799329E33AC2A
:10492000F6E60C9B9DF89720CDE913330F9706937D
:10493000099311930E93FFF70DB82A460F91DBB23E
:104940003CE543F3C01211465BB2FFF7ACB82A4610
:104950000F91DBB2FFF750B90F912A460121DBB26C
:10496000FFF711B9748A0008099B5046019302238E
:1049700000932EAB049329AB039327AB0293DDE99D
:10498000222300F0FDFE1BF0010F054640F00782D8
:104990002E9B1B1A1293279B1193119BD91C03DB8F
:1049A000099A9A4280F28E81119BA9F10209013B7A
:1049B000002127935FFA89F2002B8DF8A820B6BF5B
:1049C0002D222B22119B8DF8A920B8BFC3F1010322
:1049D000092B40F392820DF1BF073A46DFF8D0C2AF
:1049E0001E461046ACFB0321C90801EB8102A3EB74
:1049F00042023032632E00F8012C0B4600F1FF32E8
:104A0000EEDC303302F8013C831EBB4280F03A8377
:104A10000DF1A90213F8011BBB4202F8011FF9D1E5
:104A20005CAB181AA0F1AD031C93129B1C9A012BCE
:104A30001A440C9240F370820C9B189A13440C9306
:104A40002BF4806343F4807B00230C9A149322EAB6
:104A5000E272069213931193159B002B40F0218173
:104A60009DF897200993FEF775BF0F9B0A9A1B6864
:104A70001A80FFF769B80D9C5046214630AA00F015
:104A800033FBA38903F04003FEF79BBE284600F0EA
:104A900035FD119B20EAE0714FF07309CDE9133326
:104AA0009DF897200F970C90099306910E93FEF7AF
:104AB00051BF5046591CFEF7C1FA0546002800F0C8
:104AC000FF820E9001E750460D9930AA00F00CFBD2
:104AD00000287FF406AA329E33ACFFF7F5BA5046A1
:104AE0000D9930AA00F000FB00287FF4FAA9DDE957
:104AF0003136279933AA92E606230E90099312E4E1
:104B00000223099A0132069200932EAB069E04936B
:104B100029AB039327AB019602935046DDE922238C
:104B200000F02EFE29F02007462F054618BF452726
:104B3000064405D12B78302B00F03781279B1E448B
:104B40000022DDE922010023FBF7A4FF002840F04A
:104B500022812E9BB34206D230215A1C2E9219700C
:104B60002E9B9E42F9D8279A11925B1B472F1293D6
:104B70003FF413AF462F00F02681119B013B17E74E
:104B800027AADDE9220100F0E7FC00224FF07F5365
:104B9000FBF718FD02460B46CDE906230022002351
:104BA000FBF778FF08B101232793099B414A591E5F
:104BB000414BCDE911B4B9F1610F08BF1A462E4639
:104BC000D346CDF8309013958946DDE906459246E7
:104BD000099207E000220023FBF75CFF002840F069
:104BE000D181B9460022354B20462946FBF7EAFC25
:104BF0000D460446FBF748FC8046FBF7DBFB02460C
:104C00000B4620462946FBF787FA1AF80830B9F117
:104C1000FF3F324604460D4609F1FF3706F8013BD7
:104C2000D8D11746264B0022CDE90645DA46DDF8F5
:104C30003090129CDDF844B0139DFBF753FF002821
:104C400000F0128209992E9716F8012CC97B334681
:104C5000914209D1302003F8010C2E9B5A1E2E924E
:104C600013F8012C9142F6D0392A0BBF099A013270
:104C7000927AD2B203F8012C33465B1B1293279B26
:104C8000B9F1610F119303F1FF33279300F0C28153
:104C900050224FF0410901218EE6099B0693032320
:104CA00032E72D2200238DF897200993FEF755BE99
:104CB000CDCCCCCC588A0008448A00080000304093
:104CC0000000E03FDDE91123934200F3DB801BF09D
:104CD000010F119B00F04781189A13440C931BF4A9
:104CE000806F00F07A81119B4FF06709002B7DDC0B
:104CF0000C9B23EAE37306930023C346CDE91333E9
:104D0000AAE622912D2103F1004315912393FFF789
:104D100018BB5946504630AA00F0E6F900287FF447
:104D2000E0A899F80000329933AA0444FFF7FFBBCA
:104D300050460D9930AA00F0D7F900287FF4D1A889
:104D4000329E33ACFFF7B7B978238DF89930302312
:104D50008DF89830099B4BF0020B632B00F3B98060
:104D6000002343AD0E93FFF7DEBA50460D9930AAEB
:104D700000F0BAF900287FF4B4A8279B329E33AC28
:104D8000FFF7B2B9AE491591FEF71ABE00230E46E1
:104D90000993FEF772BC279A33461192E5E6099B08
:104DA0004727C618CCE65823CFE70022DDE92201C9
:104DB0000023FBF76FFE002800F02781279B1E448D
:104DC0001193731B12931199099A0BF00103002997
:104DD00043EA020340F32D81002B40F001814FF0A4
:104DE0006609119B0C931BF4806F81D01B990B7883
:104DF000FF2B00F061810026119A304604E001305B
:104E00000131FF2B00F0D880934280F2D580D21A76
:104E10004B78002BF3D10B780136F2E750460D9911
:104E200030AA00F061F900287FF45BA8279D129B4F
:104E3000329E33AC5D1BFFF76DB94F4210312CDA57
:104E4000DFF800821024CDF8548003E00832103FD0
:104E5000102F24DD01331036072BC2E90084CDE981
:104E60003136F3DD50460D9930AA00F03DF90028A7
:104E70007FF437A8DDE9313633AAE8E7704A1592A6
:104E8000FFF7EEB8129B189A9A18119B0C92002B00
:104E900040F3AE804FF06709A5E76A4915910133E9
:104EA00015993E44072BCDE931361160576000F368
:104EB000B3800832B6E4634A1592FEF7C6BF0D9A76
:104EC000938943F0400393814FF0FF330A93FEF739
:104ED0007BBC5046591CFEF7B1F805460028EED0C1
:104EE0000E90FFF720BA099B002B7FF41BAA099BA9
:104EF0000E9301230993FFF716BA002940F0828030
:104F000030228DF8AA200DF1AB02303302F8013BBC
:104F10002AABD31A1C9388E51BF0010F3FF490AD28
:104F20008AE50022D3460D9B0E92B3F90C3043F074
:104F300040030D9A9381FEF7D5BF179B0320002BEA
:104F4000B8BF2D224FF00003A8BF9DF89720194647
:104F50000E933D4D3D4BB8BF8DF897202BF0800B45
:104F60000690FEF7EEBC0C93B9E6099B4FF073096F
:104F7000CDE913009DF897200F9706930C930990A5
:104F8000FEF7E8BC49460029DA46DDF83090129C6D
:104F9000DDF844B0139DFFF66FAE4B1C3022314656
:104FA000334401F8012B9942FBD166E6099BDDF8F9
:104FB0003090069F0C937FE4CDE913061B9111926C
:104FC000DDE91332209913440C9AC34601FB0323F5
:104FD0000C9323EAE37306933EE54FF0670987E6F7
:104FE0001346189A4FF0660913440B440C93FAE6E3
:104FF000C3F101031A4422EAE2734FF067090C92ED
:10500000069379E60DF1AA027FE7069BC3F101033F
:10501000279394E570223EE650460D9930AA00F0A1
:1050200063F800287EF45DAFDDE9313633AAFFF77F
:10503000F9BB6BB901234FF0660906930C935BE64D
:10504000B0920008A0920008408A00083C8A00083C
:10505000189B4FF0660903F1010B099B5B440C930D
:1050600023EAE373069347E60022DDE906011C4BC1
:10507000FBF710FD00283FF4FFAD18F0010F3FF4DF
:10508000FBADDFE502231C93CFE40F9A73780E4645
:1050900052F8041B0F9241EAE1720992FEF7EBBA53
:1050A000104A1592FFF7DCBB0E4B1593FFF7CABBF6
:1050B0000C23CBF8003007E70023CDE913337FE75B
:1050C0000D9BD346B3F90C300E9043F0400330E70C
:1050D0000D9BD346B3F90C3043F0400329E700BFE2
:1050E0000000E03FA09200082DE9F04115469268CB
:1050F0002C68FAB107468846083402E013460834A3
:10510000C3B16B685E1E002B6E6013DD54F8046C37
:10511000002EF3D033464146384654F8082C01F0AF
:105120008BFE431C07D0AA680834921B1346AA6062
:10513000002BE6D100200023C5E90133BDE8F08152
:1051400070B500293FD006460C4610B1436B002BCA
:105150003CD0636EB4F90C20DD0732D4900538D50D
:105160002146304600F04CF8E36A054633B130463C
:10517000E16998470028B8BF4FF0FF35A3891A06A8
:1051800039D4216B41B104F14003994202D0304639
:10519000FDF758FE00232363616C21B13046FDF713
:1051A00051FE00236364FDF741FC0022636EA2817F
:1051B000DB071CD5A06DFDF7D3FDFDF73DFC2846B0
:1051C00070BD002ACCD10025284670BDFDF710FC2B
:1051D000BFE7A06DFDF7C6FDB4F90C30002BBFD1C1
:1051E000636ED907EFD4A06DFDF7BEFDEBE7A06DB0
:1051F000FDF7BAFDDEE730462169FDF723FEC0E783
:10520000B1F90C20F8B516070C46074648D4496892
:1052100042F400630029A3815FDDA56A002D3DD023
:10522000002112F480523E683960E16961D10123A6
:105230003846A847451C02466AD0B4F90C30A56A26
:10524000E169580705D56368D21A236B0BB1E36B8C
:10525000D21A00233846A847411C4CD13968B4F90A
:105260000C301D293FD82F4ACA40D2073BD5002217
:1052700062602269DD04226023F40062A28101D50C
:10528000002943D0216B3E6041B104F140039942B3
:1052900002D03846FDF7D6FD002323630020F8BD79
:1052A0000E69002EFAD0920718BF00230D6808BFC0
:1052B0004B690E60AD1B8B600CE02B463246D4F878
:1052C00024C03846E169E047B0F1000CA5EB0C05BD
:1052D000664406DD002DF0DCE0E7E16B00299CDC94
:1052E000DCE7B4F90C3043F040034FF0FF30A3810A
:1052F000F8BD226DA5E70022B4F90C306260226986
:10530000226023F40062DB04A281BBD52065B9E7EB
:105310003B68002B91D01D2B01D0162BE1D13E60B4
:10532000BCE700BF0100402038B505460C4608B177
:10533000436B03B3B4F90C0088B1636EDB0701D48F
:1053400081050FD528462146FFF75AFF636E0546B3
:10535000DA0702D4A3899B0508D5284638BD05463F
:10536000284638BDA06DFDF7FDFCEBE7A06DFDF70D
:10537000FBFC284638BDFDF73BFBDBE740EA0103B9
:105380009B0710B524D1032A22D98E468446DEF825
:1053900000407146A4F1013323EA040313F0803F77
:1053A0000EF1040E15D1043A032A4CF8044BEED842
:1053B000714601F1FF3E52B163461EF8011F541EB3
:1053C00003F8011B41B122469C46002AF4D110BDCE
:1053D000844601F1FF3EEEE79444002CF7D003F839
:1053E000011B6345FBD110BD014B93F828017047A9
:1053F000780500200048704768060020002238B574
:10540000064D044608462A60FCF7E6F9431C00D026
:1054100038BD2B68002BFBD0236038BD340D002035
:1054200038B5074D074C2C1BA41005D0013C55F88E
:10543000043D9847002CF9D1BDE8384003F0DABAB2
:10544000F8940008F4940008082802D14FF4805022
:10545000704708B5FDF754FC162203464FF0FF30A5
:105460001A6008BD5FFA81FC810744D00346511ED3
:1054700022B909E09A0709D0013905D31846027804
:1054800001336245F6D17047002070471846032962
:105490000CD80029F8D00346014401E08B42F3D038
:1054A000184613F8012B6245F8D1704710B50CEB84
:1054B0000C24024604EB044402E00439032915D904
:1054C000104652F8043B6340A3F1013E2EEA030369
:1054D00013F0803FF1D00346014401E08B4208D035
:1054E000184613F8012B6245F8D110BD104600296B
:1054F000F1D1002010BD1146C9E700BF20F0030123
:1055000010F00300C0F1000051F8043B00F1040C5E
:105510004FEACC0C6FF000021CBF22FA0CF21343CE
:105520004FF0010C4CEA0C2C4CEA0C4CA3EB0C0297
:1055300022EA030212EACC1204BF51F8043B043001
:10554000F4D0C2F1000102EA0102B2FA82F2C2F121
:105550001F0200EBD2007047F8B50027DFF858C0F3
:1055600021F00043634504460D46176021D8844668
:1055700053EA0C0C1DD0DFF844C0164601EA0C0CAF
:105580000A46BCF1000F09D100220D4BFBF71AF8B7
:105590006FF0350704460A4621F000431B156FF3F0
:1055A0001E52A3F2FE333B4442F07F55336045F474
:1055B000001520462946F8BDFFFFEF7F0000F07F71
:1055C000000050432DE9F8431B4D064628689846D5
:1055D0000F469146FDF7C6FB184B1C681CB32868A4
:1055E00065681F2D22DC4EB96B1C0235636044F8E0
:1055F0002570FDF7B9FB0020BDE8F883012304EB1B
:105600008501C1F88890D4F88821AB401A43022E56
:10561000C4F88821C1F80881E6D1D4F88C211A4356
:10562000C4F88C21E0E7064C1C60D8E7FDF79CFB32
:105630004FF0FF30E0E700BF60010020440D002084
:105640007C0D00202DE9F04F03690C6985B0A34261
:10565000C0F291808146013C01F1140509F1140862
:1056600055F8243058F824C001339C45BCFBF3F6B0
:105670004FEA840005EB840708EB840243D34FF024
:10568000000CAA46CDE90105C64663466546934629
:10569000CDF80C805AF8040BDEF800201FFA80FCCD
:1056A00006FB0C554FEA10484FEA154C06FB08CC98
:1056B000ADB290B2401B18441FFA8CF3C3EB2043E9
:1056C00003EB124380B240EA034057454EF8040B07
:1056D0004FEA1C454FEA2343DCD2DDE90105DDF842
:1056E0000C8058F8003073B9ABF10402904504D334
:1056F00007E0904504F1FF3403D252F80439002B3F
:10570000F7D0C9F81040484601F01CFA00282EDBFB
:105710004146002255F8040BD1F800C01FFA80FE64
:105720001FFA8CF3A3EB0E031344020CC2EB2342CB
:1057300002EB1C429BB243EA0243AF4241F8043BF6
:105740004FEA2242E6D258F8242008EB84036AB9D3
:10575000043B434504D807E0984504F1FF3403D2E5
:1057600053F80429002AF7D0C9F810400136304612
:1057700005B0BDE8F08F002005B0BDE8F08F00BF98
:105780002DE9F04F16461F46816B9DB0CDE90667A7
:10579000299D039049B10123C26B044693408B605D
:1057A0004A6000F073FF0023A363B7F10009B4BFA0
:1057B000012300232B60784BBCBF29F00049CDF8B2
:1057C0001C9033EA090300F0AD80DDE90634184689
:1057D000214600220023CDE90401FBF75BF9804656
:1057E00068B10123289A13602A9B13B16B4B2A9A44
:1057F00013606B4B089308981DB0BDE8F08F1AAB8F
:1058000001931BAB00930398DDE9042301F076FAC2
:105810005FEA1955824640F09B80DDE91A854544D0
:1058200005F23243202B40F38B83C3F1400309FA86
:1058300003F905F2124326FA03F349EA0300FAF7E3
:10584000A9FD0123013D1193A1F1F8710022554BEF
:10585000FAF762FC4AA3D3E90023FAF7B3FE4AA39E
:10586000D3E90023FAF75AFC064628460F46FAF712
:10587000A1FD47A3D3E90023FAF7A4FE02460B4695
:1058800030463946FAF74AFC06460F46FAF7FCFD61
:10589000002204460990002330463946FBF704F9FC
:1058A000002840F02383099CA8EB050808F1FF338A
:1058B000162C0A9300F28F81DDE904013A4B03EBC9
:1058C000C403D3E90023FBF7EFF8002872D0631E6E
:1058D00009930023109308F1FF33002BC0F282815B
:1058E00000230B93099B002B6ADA099B0B9A0E93FA
:1058F000D21A5B420F9300230993269B0B92092B2C
:1059000068D8052B40F321830025043B2693269B72
:10591000023B032B00F23F86DFE813F070046D04B6
:105920006404480442F20F73289AC9F3130959EA30
:10593000060913601CD12A9B002B00F04C861B4BE0
:10594000089308332A9A089813601DB0BDE8F08FB9
:10595000DDE90412C2F31303084643F07F51CDF88A
:105960004480A5F2FF35DDF8688041F440116DE711
:105970002A9B002B40F0F5830D4B08933BE700BFBB
:1059800061436F63A787D23FB3C8608B288AC63F45
:10599000FB799F501344D33F0000F07F758A0008C5
:1059A000748A00080000F83FF8920008C08A0008D6
:1059B000CC8A0008B8F1000F40F3A88410900B9037
:1059C000DDE9092313440A9300230F93269B0E92CB
:1059D000092B96D9002301254FF0FF3B26932793EF
:1059E0000C950021039BCDF860B0D963039800F0BB
:1059F00027FE0890002800F0D785039B089ABBF18A
:105A00000E0F9A6300F21981002D00F016810E9995
:105A1000002940F34984B44B01F00F0203EBC203A9
:105A2000C8054FEA2115D3E9006740F10A84DDE992
:105A30000401AE4B4FF00309D3E90823FAF7ECFE5B
:105A4000CDE9120105F00F058DB1DFF8A082E9075D
:105A500009D5D8E9002330463946FAF7B3FD0646A2
:105A60000F4609F101096D1008F10808EFD1DDE9D1
:105A700012013B463246FAF7CFFE07468846109B96
:105A800043B1002238464146994BFBF70DF80028F8
:105A900040F010854846FAF78DFC3A464346FAF73F
:105AA00091FD0022934BFAF739FB0446A1F15075A2
:105AB000BBF1000F00F0AA800E9BCDF848B01993FF
:105AC00041463846FAF7E0FC1299874BCDE9144578
:105AD00003EBC10353E902340546CDE91634FAF766
